:100000000C9446000C9465000C9465000C946500FB
:100010000C9465000C9465000C9465000C946500CC
:100020000C9465000C9465000C9465000C946500BC
:100030000C9465000C9465000C9465000C946500AC
:100040000C9465000C9465000C9465000C9465009C
:100050000C9465000C9465000C9465000C9465008C
:100060000C9465000C9465000C9465000C9465007C
:100070000C9465000C9465000C9465000C9465006C
:100080000C9465000C9465000C94650011241FBE4F
:10009000CFEFD0E4DEBFCDBF11E0A0E0B1E0E2E001
:1000A000F3E000E00BBF02C007900D92AE30B10745
:1000B000D9F711E0AEE0B1E001C01D92A031B10767
:1000C000E1F70E944B010C947F010C940000CF9348
:1000D000DF9300D01F92CDB7DEB789837B836A831D
:1000E00089818A3031F48A819B81BC018DE00E9434
:1000F000670080EC90E0FC018081882F90E08072A6
:1001000099270097B1F386EC90E02981FC012083C8
:1001100080E090E00F900F900F90DF91CF910895C5
:10012000CF93DF9300D000D0CDB7DEB78A836B8347
:100130004C8380910E0190910F018230910509F45A
:1001400041C08330910530F4009761F08130910512
:1001500081F05AC08330910509F445C0843091057F
:1001600079F052C081E090E090930F0180930E01EE
:1001700050C084E090E090930F0180930E0149C03D
:100180008A81882351F08B81882339F482E090E0C2
:1001900090930F0180930E0114C08A81882351F43B
:1001A0008B81882339F083E090E090930F01809356
:1001B0000E0107C084E090E090930F0180930E0140
:1001C00028C027C08A81882339F082E090E090938C
:1001D0000F0180930E011DC084E090E090930F0109
:1001E00080930E0116C08B81882339F083E090E064
:1001F00090930F0180930E010CC084E090E09093E7
:100200000F0180930E0105C010920F0110920E0194
:100210000000198280910E0190910F0182309105AA
:10022000A9F08330910530F4009761F18130910598
:1002300041F029C083309105B9F08430910521F057
:1002400022C087E08C831FC019821DC08C8188303A
:1002500050F48981882339F48C818F5F8C83898164
:100260008F5F898310C00FC08C81882351F08981F2
:10027000882339F48C8181508C8389818F5F8983B5
:1002800002C001C000008C810F900F900F900F9062
:10029000DF91CF910895CF93DF9300D01F92CDB718
:1002A000DEB781E290E0FC01108282E290E02FEF65
:1002B000FC01208384E290E02FEFFC01208385E2A3
:1002C00090E0FC0110821A821B82198280E290E089
:1002D000FC01808181708A8380E290E0FC01808152
:1002E00082708B8349816B818A810E9490008F701C
:1002F000898385E290E02981FC012083E7CFF8948F
:02030000FFCF2D
:0E030200000000020000000067000000000084
:00000001FF
