:100000000C9446000C9465000C9465000C946500FB
:100010000C9465000C9465000C9465000C946500CC
:100020000C9465000C9465000C9465000C946500BC
:100030000C9465000C9465000C9465000C946500AC
:100040000C9465000C9465000C9465000C9465009C
:100050000C9465000C9465000C9465000C9465008C
:100060000C9465000C9465000C9465000C9465007C
:100070000C9465000C9465000C9465000C9465006C
:100080000C9465000C9465000C94650011241FBE4F
:10009000CFEFD0E4DEBFCDBF11E0A0E0B1E0EEEDE8
:1000A000F2E000E00BBF02C007900D92AE30B10746
:1000B000D9F711E0AEE0B1E001C01D92A031B10767
:1000C000E1F70E9433010C946D010C940000CF9372
:1000D000DF9300D01F92CDB7DEB789837B836A831D
:1000E00089818A3031F48A819B81BC018DE00E9434
:1000F000670080EC90E0FC018081882F90E08072A6
:1001000099270097B1F386EC90E02981FC012083C8
:1001100080E090E00F900F900F90DF91CF910895C5
:10012000CF93DF9300D01F92CDB7DEB789836A8368
:100130004B8380910E0190910F018230910509F45B
:1001400040C08330910530F4009759F0813091051B
:1001500089F151C08330910559F084309105C1F186
:100160004AC083E090E090930F0180930E0148C055
:100170008981882351F08A81882339F481E090E0D5
:1001800090930F0180930E0114C08981882351F44C
:100190008A81882339F082E090E090930F01809368
:1001A0000E0107C083E090E090930F0180930E0151
:1001B00027C026C084E090E090930F0180930E0149
:1001C0001FC084E090E090930F0180930E0118C04F
:1001D0008981882319F48A81882339F084E090E0AA
:1001E00090930F0180930E0106C083E090E09093FE
:1001F0000F0180930E0110920F0110920E0100006A
:1002000080910E0190910F0182309105C1F08330F1
:10021000910530F40097D9F08130910541F01CC070
:1002200083309105B1F084309105A9F015C08B8120
:10023000883020F48B818F5F8B830EC00DC08B8143
:10024000882321F08B8181508B8306C005C000007C
:1002500003C0000001C000008B810F900F900F9031
:10026000DF91CF910895CF93DF9300D01F92CDB748
:10027000DEB781E290E0FC01108282E290E02FEF95
:10028000FC01208384E290E02FEFFC01208385E2D3
:1002900090E0FC0110821A821B82198210920F01D9
:1002A00010920E0187E0898380E290E0FC0180815A
:1002B00081708A8380E290E0FC01808182708B8370
:1002C00049816B818A810E9490008F70898385E2C9
:0E02D00090E02981FC012083E7CFF894FFCF56
:0E02DE000000000200000000670000000000A9
:00000001FF
