:100000000C945C000C947B000C947B000C947B00A3
:100010000C947B000C947B000C947B000C947B0074
:100020000C947B000C947B000C947B000C947B0064
:100030000C947B000C947B000C947B000C947B0054
:100040000C947B000C947B000C947B000C947B0044
:100050000C947B000C947B000C947B000C947B0034
:100060000C947B000C947B000C947B000C947B0024
:100070000C947B000C947B000C947B000C947B0014
:100080000C947B000C947B000C947B00CB00D20082
:10009000F700250153019A01AB01D001080240028B
:1000A0009102BC02CF02CF02CF02BE02C302CF0236
:1000B000CF02CF02C602CB0211241FBECFEFD0E485
:1000C000DEBFCDBF11E0A0E0B1E0E4ECF8E000E07D
:1000D0000BBF02C007900D92AE30B107D9F711E007
:1000E000AEE0B1E001C01D92A031B107E1F70E947E
:1000F000DC020C9460040C940000CF93DF9300D0DA
:100100001F92CDB7DEB789837B836A8389818A306A
:1001100031F48A819B81BC018DE00E947D0080ECDE
:1001200090E0FC018081882F90E0807299270097F1
:10013000B1F386EC90E02981FC01208380E090E01F
:100140000F900F900F90DF91CF910895EF920F9342
:10015000CF93DF9300D000D000D0CDB7DEB7898336
:100160006A834B832C830D83EE8280910E019091E4
:100170000F01CC01A0E0B0E040E050E02AE030E028
:10018000841B950B2817390708F4DCC18A5B9F4F45
:10019000FC010C94570481E090E090930F01809350
:1001A0000E01D5C18A81882381F48B81882369F46B
:1001B0008C81882351F08D81882339F482E090E08E
:1001C00090930F0180930E0111C08D81882339F027
:1001D0008AE090E090930F0180930E0107C081E0C8
:1001E00090E090930F0180930E01B1C1B0C18A815C
:1001F000882381F48B81882369F48C81882351F0D2
:100200008D81882339F482E090E090930F018093F0
:100210000E011AC08A81882381F48B81882369F4B6
:100220008C81882351F48D81882339F483E090E018
:1002300090930F0180930E0107C08AE090E09093A5
:100240000F0180930E0183C182C18A81882319F432
:100250008B81882369F08C81882351F48D818823D8
:1002600039F484E090E090930F0180930E011AC05E
:100270008A81882381F48B81882369F48C81882387
:1002800051F48D81882339F483E090E090930F013D
:1002900080930E0107C08AE090E090930F01809355
:1002A0000E0155C154C18A81882319F48B8188239A
:1002B00069F08C81882351F48D81882339F484E09E
:1002C00090E090930F0180930E0133C08A818823C0
:1002D00099F48B81882381F48C81882369F48D8142
:1002E000882351F48981863038F483E090E090933C
:1002F0000F0180930E011DC08A81882399F48B81A0
:10030000882381F48C81882369F48D81882351F4BA
:100310008981863038F085E090E090930F018093DA
:100320000E0107C08AE090E090930F0180930E01C8
:100330000EC10DC18D81882339F08AE090E0909341
:100340000F0180930E0103C186E090E090930F01AE
:1003500080930E01FCC08A81882381F48B818823DD
:1003600069F48C81882351F08D81882339F487E0EA
:1003700090E090930F0180930E0111C08D8188232E
:1003800039F08AE090E090930F0180930E0107C04E
:1003900086E090E090930F0180930E01D8C0D7C003
:1003A0008A81882381F48B81882369F48C81882356
:1003B00051F08D81882339F487E090E090930F010C
:1003C00080930E0124C08A81882381F48B81882345
:1003D00069F48C81882351F48D81882339F488E075
:1003E00090E090930F0180930E0111C08D818823BE
:1003F00039F08AE090E090930F0180930E0107C0DE
:1004000085E090E090930F0180930E01A0C09FC003
:100410008A81882319F48B81882369F08C81882351
:1004200051F48D81882339F489E090E090930F0195
:1004300080930E0124C08A81882381F48B818823D4
:1004400069F48C81882351F48D81882339F488E004
:1004500090E090930F0180930E0111C08D8188234D
:1004600039F08AE090E090930F0180930E0107C06D
:1004700085E090E090930F0180930E0168C067C003
:100480008A81882319F48B81882369F08C818823E1
:1004900051F48D81882339F489E090E090930F0125
:1004A00080930E013DC08A81882399F48B81882333
:1004B00081F48C81882369F48D81882351F48981AA
:1004C000863038F488E090E090930F0180930E011D
:1004D00027C08A81882399F48B81882381F48C81B9
:1004E000882369F48D81882351F48981863038F01E
:1004F0008AE090E090930F0180930E0111C08D81EE
:10050000882339F08AE090E090930F0180930E01E8
:1005100007C085E090E090930F0180930E0117C013
:1005200016C08D81882339F08AE090E090930F0106
:1005300080930E010CC081E090E090930F018093B6
:100540000E0105C010920F0110920E010000809163
:100550000E0190910F01CC01A0E0B0E040E050E02E
:100560002AE030E0841B950B28173907B0F08F5A2A
:100570009F4FFC010C9457041E8212C09A818B81FC
:10058000892B8E830DC081E08E830AC09A818B8176
:10059000892B8E8305C01E8203C0000001C00000AD
:1005A0008E8126960FB6F894DEBF0FBECDBFDF91C9
:1005B000CF910F91EF900895EF920F93CF93DF9328
:1005C000CDB7DEB72C970FB6F894DEBF0FBECDBF08
:1005D00081E290E0FC01108282E290E02FEFFC01CA
:1005E000208384E290E02FEFFC01208385E290E0FD
:1005F000FC01108219821A821B821C821D821E82BB
:100600001F821886198681E08A8782E08B8781E0C5
:100610008C8780E290E0FC018081882F90E0992710
:100620008130910521F580E290E0FC0180818170AC
:1006300089838E81282F30E08981882F90E0A9015D
:10064000481B590BCA018230910509F41A828E8128
:10065000282F30E08A81882F90E0F901E81BF90B00
:10066000CF018430910509F075C01B8273C080E210
:1006700090E0FC018081882F90E0992782309105DD
:1006800021F580E290E0FC01808182708A838E8176
:10069000282F30E08A81882F90E0A901481B590B50
:1006A000CA018130910509F419828E81282F30E02A
:1006B0008A81882F90E0F901E81BF90BCF01843083
:1006C000910509F047C01B8245C080E290E0FC0123
:1006D0008081882F90E099278430910519F580E278
:1006E00090E0FC01808184708B838E81282F30E024
:1006F0008A81882F90E0A901481B590BCA018230DA
:10070000910509F41A828E81282F30E08981882F83
:1007100090E0F901E81BF90BCF0181309105D1F48C
:10072000198218C080E290E0FC0180818170898389
:1007300080E290E0FC01808182708A8380E290E018
:10074000FC01808184708B8380E290E0FC018081D9
:1007500080788C83ED800C812B814A8169818F8127
:100760000E94A6008D8380910E0190910F0184302C
:10077000910579F48F818695882F90E09E01265F00
:100780003F4F820F931F2D81FC0120838F818F5F4C
:100790008F838F818650823058F518861CC08885DB
:1007A000882F90E09E01265F3F4F820F931FFC0130
:1007B00040818885882F90E09E01265F3F4F820F01
:1007C000931FFC018081481719F489858F5F898701
:1007D00088858F5F88878885833008F38985833093
:1007E00031F08AE090E090930F0180930E0119861A
:1007F00080910E0190910F018930910579F48F81DC
:100800008695882F90E09E01265F3F4F820F931FB1
:100810002D81FC0120838F818F5F8F838F81865094
:10082000823058F518861CC08885882F90E09E017C
:10083000265F3F4F820F931FFC0140818885882FE0
:1008400090E09E01265F3F4F820F931FFC01808145
:10085000481719F489858F5F898788858F5F888716
:100860008885833008F38985833031F086E090E015
:1008700090930F0180930E01198680910E01909143
:100880000F018130910539F080910E0190910F0197
:100890008630910509F41F8280E290E0FC0180819E
:1008A0008E8385E290E02D81FC012083B2CEEE0F95
:1008B000FF1F0024001C0BBE0790F691E02D099449
:0408C000F894FFCFDA
:0E08C40000000002000000007D0000000000A7
:00000001FF
