:100000000C9446000C9465000C9465000C946500FB
:100010000C9465000C9465000C9465000C946500CC
:100020000C9465000C9465000C9465000C946500BC
:100030000C9465000C9465000C9465000C946500AC
:100040000C9465000C9465000C9465000C9465009C
:100050000C9465000C9465000C9465000C9465008C
:100060000C9465000C9465000C9465000C9465007C
:100070000C9465000C9465000C9465000C9465006C
:100080000C9465000C9465000C94650011241FBE4F
:10009000CFEFD0E4DEBFCDBF11E0A0E0B1E0E4E2FD
:1000A000F3E000E00BBF02C007900D92AE30B10745
:1000B000D9F711E0AEE0B1E001C01D92A031B10767
:1000C000E1F70E944B010C9490010C940000CF9337
:1000D000DF9300D01F92CDB7DEB789837B836A831D
:1000E00089818A3031F48A819B81BC018DE00E9434
:1000F000670080EC90E0FC018081882F90E08072A6
:1001000099270097B1F386EC90E02981FC012083C8
:1001100080E090E00F900F900F90DF91CF910895C5
:100120000F93CF93DF9300D000D01F92CDB7DEB7EF
:1001300089836A834B832C830D8380910E01909178
:100140000F018230910519F18330910530F4009749
:1001500081F081309105A1F069C08430910509F4E6
:1001600043C08430910578F18530910509F44DC084
:100170005DC081E090E090930F0180930E015BC021
:1001800085E090E090930F0180930E0154C08B8125
:10019000882339F082E090E090930F0180930E0164
:1001A00011C08B81882339F483E090E090930F0194
:1001B00080930E0107C085E090E090930F0180933B
:1001C0000E0139C038C08A81882339F084E090E07C
:1001D00090930F0180930E012EC085E090E09093E4
:1001E0000F0180930E0127C08C81882339F085E0B0
:1001F00090E090930F0180930E011DC084E090E089
:1002000090930F0180930E0116C08B81882339F0E3
:1002100082E090E090930F0180930E010CC085E086
:1002200090E090930F0180930E0105C010920F0192
:1002300010920E01000080910E0190910F0182300A
:100240009105B1F08330910530F4009799F0813039
:10025000910591F016C08430910539F084309105F4
:1002600068F08530910561F00CC081E08D8309C094
:10027000000007C0000005C0000003C0000001C06E
:1002800000008D810F900F900F900F900F90DF91D5
:10029000CF910F9108950F93CF93DF9300D000D0AB
:1002A0001F92CDB7DEB781E290E0FC01108282E2BE
:1002B00090E02FEFFC01208384E290E02FEFFC011F
:1002C000208385E290E0FC0110821A821B821C824E
:1002D0001D82198280E290E0FC01808181708A8316
:1002E00080E290E0FC01808182708B8380E290E06C
:1002F000FC01808184708C8380E290E0FC0180812D
:1003000080788D8309812D814C816B818A810E9447
:100310009000898385E290E02981FC012083DACF77
:04032000F894FFCF7F
:0E032400000000020000000067000000000062
:00000001FF
