:100000000C9446000C9465000C9465000C946500FB
:100010000C9465000C9465000C9465000C946500CC
:100020000C9465000C9465000C9465000C946500BC
:100030000C9465000C9465000C9465000C946500AC
:100040000C9465000C9465000C9465000C9465009C
:100050000C9465000C9465000C9465000C9465008C
:100060000C9465000C9465000C9465000C9465007C
:100070000C9465000C9465000C9465000C9465006C
:100080000C9465000C9465000C94650011241FBE4F
:10009000CFEFD0E4DEBFCDBF11E0A0E0B1E0ECEAED
:1000A000F3E000E00BBF02C007900D92AE30B10745
:1000B000D9F711E0AEE0B1E001C01D92A031B10767
:1000C000E1F70E945C010C94D4010C940000CF93E2
:1000D000DF9300D01F92CDB7DEB789837B836A831D
:1000E00089818A3031F48A819B81BC018DE00E9434
:1000F000670080EC90E0FC018081882F90E08072A6
:1001000099270097B1F386EC90E02981FC012083C8
:1001100080E090E00F900F900F90DF91CF910895C5
:100120000F93CF93DF9300D000D01F92CDB7DEB7EF
:1001300089836A834B832C830D8380910E01909178
:100140000F018230910519F18330910530F4009749
:1001500081F081309105A1F07AC08430910509F4D5
:1001600054C08430910578F18530910509F45EC062
:100170006EC081E090E090930F0180930E016CC0FF
:1001800085E090E090930F0180930E0165C08B8114
:10019000882339F082E090E090930F0180930E0164
:1001A00011C08B81882339F483E090E090930F0194
:1001B00080930E0107C085E090E090930F0180933B
:1001C0000E014AC049C08A81882339F084E090E05A
:1001D00090930F0180930E0117C08981882369F4E1
:1001E0008A81882351F48B81882339F483E090E05D
:1001F00090930F0180930E0107C085E090E09093EB
:100200000F0180930E0128C027C08C81882339F00C
:1002100085E090E090930F0180930E011DC084E073
:1002200090E090930F0180930E0116C08B8188237C
:1002300039F082E090E090930F0180930E010CC0A2
:1002400085E090E090930F0180930E0105C010921D
:100250000F0110920E01000080910E0190910F018C
:1002600082309105C1F08330910530F40097A9F0F8
:1002700081309105A1F016C08430910549F0843099
:10028000910578F08530910509F00CC01D820AC0F7
:1002900081E08D8307C0000005C0000003C000009E
:1002A00001C000008D810F900F900F900F900F9064
:1002B000DF91CF910F9108950F93CF93DF9300D0EB
:1002C00000D01F92CDB7DEB781E290E0FC01108232
:1002D00082E290E02FEFFC01208384E290E02FEF98
:1002E000FC01208385E290E0FC01108219821A82D1
:1002F0001B821C821D8280E290E0FC018081882F9D
:1003000090E099278130910539F480E290E0FC017A
:100310008081817089833AC080E290E0FC01808115
:10032000882F90E099278230910539F480E290E09F
:10033000FC01808182708A8329C080E290E0FC0108
:100340008081882F90E099278430910539F480E2EC
:1003500090E0FC01808184708B8318C080E290E083
:10036000FC0180818170898380E290E0FC018081C2
:1003700082708A8380E290E0FC01808184708B83AC
:1003800080E290E0FC01808180788C830D812C815B
:100390004B816A8189810E9490008D8385E290E083
:0C03A0002D81FC012083A7CFF894FFCF33
:0E03AC000000000200000000670000000000DA
:00000001FF
