:100000000C9446000C945D000C945D000C945D0013
:100010000C945D000C945D000C945D000C945D00EC
:100020000C945D000C945D000C945D000C945D00DC
:100030000C945D000C945D000C945D000C945D00CC
:100040000C945D000C945D000C945D000C945D00BC
:100050000C945D000C945D000C945D000C945D00AC
:100060000C945D000C945D000C945D000C945D009C
:100070000C945D000C945D000C945D000C945D008C
:100080000C945D000C945D000C945D0011241FBE67
:10009000CFEFD0E4DEBFCDBF11E0A0E0B1E0ECEBEC
:1000A000F1E000E00BBF02C007900D92AE30B10747
:1000B000D9F70E9488000C94DC000C940000CF93C8
:1000C000DF9300D01F92CDB7DEB789837B836A832D
:1000D00089818A3031F48A819B81BC018DE00E9444
:1000E0005F0080EC90E0FC018081882F90E08072BE
:1000F00099270097B1F386EC90E02981FC012083D9
:1001000080E090E00F900F900F90DF91CF910895D5
:10011000CF93DF9300D000D01F92CDB7DEB78AE235
:1001200090E0FC0110828BE290E02FEFFC01208335
:1001300084E290E02EEFFC01208385E290E021E054
:10014000FC0120831A821B82198289E290E0FC0163
:1001500080818A8383E290E0FC01808181708B83BF
:1001600019821D821C828A81882F90E09C01220FB7
:10017000331F8B81882F90E0820F931F9D838C8388
:100180008C819D818634910520F0898182608983EC
:100190000DC08C819D818630910540F08C819D81C0
:1001A0008634910518F489818460898385E290E022
:0C01B0002981FC012083C9CFF894FFCF07
:0E01BC0000000002000000005F0000000000D4
:00000001FF
