:100000000C9456000C9475000C9475000C947500BB
:100010000C9475000C9475000C9475000C9475008C
:100020000C9475000C9475000C9475000C9475007C
:100030000C9475000C9475000C9475000C9475006C
:100040000C9475000C9475000C9475000C9475005C
:100050000C9475000C9475000C9475000C9475004C
:100060000C9475000C9475000C9475000C9475003C
:100070000C9475000C9475000C9475000C9475002C
:100080000C9475000C9475000C947500BF00C600AC
:10009000EF00F600CD00FD001F014101A1018A0122
:1000A0008D019501A101A101A1019D0111241FBE96
:1000B000CFEFD0E4DEBFCDBF11E0A0E0B1E0EEECC9
:1000C000F3E000E00BBF02C007900D92AE30B10725
:1000D000D9F711E0AEE0B1E001C01D92A031B10747
:1000E000E1F70E94A9010C94E5010C940000CF9364
:1000F000DF9300D01F92CDB7DEB789837B836A83FD
:1001000089818A3031F48A819B81BC018DE00E9413
:10011000770080EC90E0FC018081882F90E0807275
:1001200099270097B1F386EC90E02981FC012083A8
:1001300080E090E00F900F900F90DF91CF910895A5
:10014000CF93DF9300D01F92CDB7DEB789836A8348
:100150004B8380910E0190910F01CC01A0E0B0E0A3
:1001600040E050E027E030E0841B950B281739076A
:1001700008F4B6C08A5B9F4FFC010C94DC0181E05F
:1001800090E090930F0180930E01AFC084E090E067
:1001900090930F0180930E01A8C08981882351F0AC
:1001A0008A81882339F482E090E090930F01809354
:1001B0000E0114C08981882351F48A81882339F083
:1001C00083E090E090930F0180930E0107C084E0DC
:1001D00090E090930F0180930E0187C086C085E068
:1001E00090E090930F0180930E017FC086E090E035
:1001F00090930F0180930E0178C08981882351F07C
:100200008A81882339F485E090E090930F018093F0
:100210000E0114C08981882351F08A81882339F026
:1002200087E090E090930F0180930E0107C084E077
:1002300090E090930F0180930E0157C056C08A81C1
:10024000882351F08981882339F486E090E09093E7
:100250000F0180930E0114C08A81882351F0898197
:10026000882339F087E090E090930F0180930E018E
:1002700007C084E090E090930F0180930E0135C099
:1002800034C08981882351F08A81882339F087E03E
:1002900090E090930F0180930E0121C08981882303
:1002A00051F08A81882339F485E090E090930F0122
:1002B00080930E0114C08A81882351F0898188239C
:1002C00039F486E090E090930F0180930E0107C00F
:1002D00084E090E090930F0180930E0106C005C06A
:1002E00010920F0110920E01000080910E0190916A
:1002F0000F01CC01A0E0B0E040E050E027E030E0AA
:10030000841B950B28173907D0F0825B9F4FFC01A7
:100310000C94DC0187E08B8315C08B81893020F43D
:100320008B818F5F8B830EC00DC08B81882321F062
:100330008B8181508B8306C005C01B8203C00000E7
:1003400001C000008B810F900F900F90DF91CF9133
:100350000895CF93DF9300D01F92CDB7DEB781E22F
:1003600090E0FC01108282E290E02FEFFC012083FC
:1003700087E290E02FEFFC01208388E290E0FC010F
:1003800010821A821B82198280E290E0FC01808137
:1003900081708A8380E290E0FC01808182708B838F
:1003A00049816B818A810E94A000898388E290E064
:1003B0002981FC012083E8CFEE0FFF1F0024001CE1
:0E03C0000BBE0790F691E02D0994F894FFCF44
:0E03CE000000000200000000770000000000A8
:00000001FF
