:100000000C9454000C9473000C9473000C947300C3
:100010000C9473000C9473000C9473000C94730094
:100020000C9473000C9473000C9473000C94730084
:100030000C9473000C9473000C9473000C94730074
:100040000C9473000C9473000C9473000C94730064
:100050000C9473000C9473000C9473000C94730054
:100060000C9473000C9473000C9473000C94730044
:100070000C9473000C9473000C9473000C94730034
:100080000C9473000C9473000C947300BD00C400B6
:10009000ED00F400CB00FB000C014C0137013A01EC
:1000A00042014C014C014C0111241FBECFEFD0E4A2
:1000B000DEBFCDBF11E0A0E0B1E0E4E2F3E000E09C
:1000C0000BBF02C007900D92AE30B107D9F711E017
:1000D000AEE0B1E001C01D92A031B107E1F70E948E
:1000E00054010C9490010C940000CF93DF9300D046
:1000F0001F92CDB7DEB789837B836A8389818A307B
:1001000031F48A819B81BC018DE00E94750080ECF6
:1001100090E0FC018081882F90E080729927009701
:10012000B1F386EC90E02981FC01208380E090E02F
:100130000F900F900F90DF91CF910895CF93DF93A1
:1001400000D01F92CDB7DEB789836A834B8380913D
:100150000E0190910F01CC01A0E0B0E040E050E032
:1001600026E030E0841B950B2817390708F465C09A
:100170008A5B9F4FFC010C94870181E090E0909393
:100180000F0180930E015EC084E090E090930F0118
:1001900080930E0157C08981882351F08A8188237A
:1001A00039F482E090E090930F0180930E0114C027
:1001B0008981882351F48A81882339F083E090E093
:1001C00090930F0180930E0107C084E090E090931C
:1001D0000F0180930E0136C035C085E090E090930A
:1001E0000F0180930E012EC086E090E090930F01E6
:1001F00080930E0127C08981882339F085E090E043
:1002000090930F0180930E011DC084E090E09093C5
:100210000F0180930E0116C08A81882339F086E091
:1002200090E090930F0180930E010CC084E090E069
:1002300090930F0180930E0105C010920F01109250
:100240000E01000080910E0190910F01CC01A0E001
:10025000B0E040E050E026E030E0841B950B28172A
:100260003907C0F0835B9F4FFC010C94870187E046
:100270008B8313C08B81883020F48B818F5F8B83BD
:100280000CC00BC08B81882321F08B8181508B8324
:1002900004C003C0000001C000008B810F900F90CC
:1002A0000F90DF91CF910895CF93DF9300D01F92ED
:1002B000CDB7DEB781E290E0FC01108282E290E0EF
:1002C0002FEFFC01208387E290E02FEFFC012083D9
:1002D00088E290E0FC0110821A821B82198280E27F
:1002E00090E0FC01808181708A8380E290E0FC01D3
:1002F000808182708B8349816B818A810E949E00FC
:10030000898388E290E02981FC012083E8CFEE0F09
:10031000FF1F0024001C0BBE0790F691E02D0994EE
:04032000F894FFCF7F
:0E032400000000020000000075000000000054
:00000001FF
