:100000000C9456000C9475000C9475000C947500BB
:100010000C9475000C9475000C9475000C9475008C
:100020000C9475000C9475000C9475000C9475007C
:100030000C9475000C9475000C9475000C9475006C
:100040000C9475000C9475000C9475000C9475005C
:100050000C9475000C9475000C9475000C9475004C
:100060000C9475000C9475000C9475000C9475003C
:100070000C9475000C9475000C9475000C9475002C
:100080000C9475000C9475000C947500BF00C600AC
:10009000EF00F600CD00FD001F0141017901620172
:1000A00065016D01790179017901750111241FBE86
:1000B000CFEFD0E4DEBFCDBF11E0A0E0B1E0EAEECB
:1000C000F3E000E00BBF02C007900D92AE30B10725
:1000D000D9F711E0AEE0B1E001C01D92A031B10747
:1000E000E1F70E9481010C94F3010C940000CF937E
:1000F000DF9300D01F92CDB7DEB789837B836A83FD
:1001000089818A3031F48A819B81BC018DE00E9413
:10011000770080EC90E0FC018081882F90E0807275
:1001200099270097B1F386EC90E02981FC012083A8
:1001300080E090E00F900F900F90DF91CF910895A5
:10014000CF93DF9300D01F92CDB7DEB789836A8348
:100150004B8380910E0190910F01CC01A0E0B0E0A3
:1001600040E050E027E030E0841B950B281739076A
:1001700008F48EC08A5B9F4FFC010C94EA0181E079
:1001800090E090930F0180930E0187C084E090E08F
:1001900090930F0180930E0180C08981882351F0D4
:1001A0008A81882339F482E090E090930F01809354
:1001B0000E0114C08981882351F48A81882339F083
:1001C00083E090E090930F0180930E0107C084E0DC
:1001D00090E090930F0180930E015FC05EC085E0B8
:1001E00090E090930F0180930E0157C086E090E05D
:1001F00090930F0180930E0150C08981882351F0A4
:100200008A81882339F485E090E090930F018093F0
:100210000E0114C08981882351F08A81882339F026
:1002200087E090E090930F0180930E0107C084E077
:1002300090E090930F0180930E012FC02EC08A8111
:10024000882351F08981882339F486E090E09093E7
:100250000F0180930E0114C08A81882351F0898197
:10026000882339F087E090E090930F0180930E018E
:1002700007C084E090E090930F0180930E010DC0C1
:100280000CC084E090E090930F0180930E0105C0B4
:1002900010920F0110920E01000080910E019091BA
:1002A0000F01CC01A0E0B0E040E050E027E030E0FA
:1002B000841B950B28173907D0F0825B9F4FFC01F8
:1002C0000C94EA0187E08B8315C08B81893020F480
:1002D0008B818F5F8B830EC00DC08B81882321F0B3
:1002E0008B8181508B8306C005C01B8203C0000038
:1002F00001C000008B810F900F900F90DF91CF9184
:100300000895CF93DF9300D01F92CDB7DEB781E27F
:1003100090E0FC01108282E290E02FEFFC0120834C
:1003200087E290E02FEFFC01208388E290E0FC015F
:10033000108219821A821B8280E290E0FC01808187
:10034000882F90E0837099278130910581F480E2B5
:1003500090E0FC018081817089838B81882371F515
:1003600080E290E0FC01808182708A8327C080E275
:1003700090E0FC018081882F90E083709927823083
:10038000910581F480E290E0FC01808182708A8393
:100390008B81882399F480E290E0FC018081817058
:1003A00089830CC080E290E0FC01808181708983A8
:1003B00080E290E0FC01808182708A834B816A81B7
:1003C00089810E94A0008B8388E290E02B81FC0150
:1003D0002083B2CFEE0FFF1F0024001C0BBE07903E
:0A03E000F691E02D0994F894FFCF88
:0E03EA0000000002000000007700000000008C
:00000001FF
