:100000000C9446000C9465000C9465000C946500FB
:100010000C9465000C9465000C9465000C946500CC
:100020000C9465000C9465000C9465000C946500BC
:100030000C9465000C9465000C9465000C946500AC
:100040000C9465000C9465000C9465000C9465009C
:100050000C9465000C9465000C9465000C9465008C
:100060000C9465000C9465000C9465000C9465007C
:100070000C9465000C9465000C9465000C9465006C
:100080000C9465000C9465000C94650011241FBE4F
:10009000CFEFD0E4DEBFCDBF11E0A0E0B1E0E6E5F8
:1000A000F2E000E00BBF02C007900D92AE30B10746
:1000B000D9F711E0AEE0B1E001C01D92A031B10767
:1000C000E1F70E94FB000C9429010C940000CF93EF
:1000D000DF9300D01F92CDB7DEB789837B836A831D
:1000E00089818A3031F48A819B81BC018DE00E9434
:1000F000670080EC90E0FC018081882F90E08072A6
:1001000099270097B1F386EC90E02981FC012083C8
:1001100080E090E00F900F900F90DF91CF910895C5
:10012000CF93DF9300D0CDB7DEB789836A83809108
:100130000E0190910F018130910589F08130910578
:1001400038F082309105E1F08330910501F12EC045
:1001500081E090E090930F0180930E012CC0898183
:10016000882339F481E090E090930F0180930E0191
:1001700022C082E090E090930F0180930E011BC09B
:1001800083E090E090930F0180930E0114C0898169
:10019000882339F483E090E090930F0180930E015F
:1001A0000AC010920F0110920E0105C010920F01AB
:1001B00010920E01000080910E0190910F0181308C
:1001C000910581F08130910538F08230910539F048
:1001D0008330910549F009C081E08A8306C082E03E
:1001E0008A8303C0000001C000008A810F900F9035
:1001F000DF91CF910895CF93DF9300D0CDB7DEB7D5
:1002000081E290E0FC01108282E290E02FEFFC019D
:10021000208384E290E02FEFFC01208385E290E0D0
:10022000FC0110821A82198210920F0110920E01A5
:1002300080E290E0FC01808181708A8369818A81FB
:100240000E949000898385E290E02981FC0120834F
:06025000EFCFF894FFCF90
:0E025600000000020000000067000000000031
:00000001FF
