:100000000C9446000C9465000C9465000C946500FB
:100010000C9465000C9465000C9465000C946500CC
:100020000C9465000C9465000C9465000C946500BC
:100030000C9465000C9465000C9465000C946500AC
:100040000C9465000C9465000C9465000C9465009C
:100050000C9465000C9465000C9465000C9465008C
:100060000C9465000C9465000C9465000C9465007C
:100070000C9465000C9465000C9465000C9465006C
:100080000C9465000C9465000C94650011241FBE4F
:10009000CFEFD0E4DEBFCDBF11E0A0E0B1E0E8ECEF
:1000A000F2E000E00BBF02C007900D92AE30B10746
:1000B000D9F711E0AEE0B1E001C01D92A031B10767
:1000C000E1F70E9437010C9462010C940000CF9379
:1000D000DF9300D01F92CDB7DEB789837B836A831D
:1000E00089818A3031F48A819B81BC018DE00E9434
:1000F000670080EC90E0FC018081882F90E08072A6
:1001000099270097B1F386EC90E02981FC012083C8
:1001100080E090E00F900F900F90DF91CF910895C5
:10012000CF93DF9300D0CDB7DEB789836A83809108
:100130000E0190910F018230910511F183309105EC
:1001400030F4009779F08130910599F05DC08430EA
:10015000910539F184309105A8F18530910509F4B4
:1001600042C052C081E090E090930F0180930E0155
:1001700050C084E090E090930F0180930E0149C03D
:100180008981882339F484E090E090930F01809373
:100190000E013FC082E090E090930F0180930E012A
:1001A00038C08981882339F484E090E090930F016E
:1001B00080930E012EC083E090E090930F01809316
:1001C0000E0127C08981882339F485E090E090935F
:1001D0000F0180930E011DC083E090E090930F010A
:1001E00080930E0116C08981882339F485E090E060
:1001F00090930F0180930E010CC082E090E09093E9
:100200000F0180930E0105C010920F0110920E0194
:10021000000080910E0190910F0182309105B1F0A4
:100220008330910530F40097B9F08130910559F091
:1002300018C08430910591F08430910550F08530DC
:10024000910571F00EC081E08A830BC081E08A8342
:1002500008C082E08A8305C0000003C0000001C01E
:1002600000008A810F900F90DF91CF910895CF9376
:10027000DF9300D0CDB7DEB781E290E0FC011082C1
:1002800082E290E02FEFFC01208384E290E02FEFE8
:10029000FC01208385E290E0FC0110821A82198221
:1002A00080E290E0FC01808181708A8369818A818B
:1002B0000E9490008370898385E290E02981FC018F
:0802C0002083EECFF894FFCF7C
:0E02C8000000000200000000670000000000BF
:00000001FF
