:100000000C9446000C945D000C945D000C945D0013
:100010000C945D000C945D000C945D000C945D00EC
:100020000C945D000C945D000C945D000C945D00DC
:100030000C945D000C945D000C945D000C945D00CC
:100040000C945D000C945D000C945D000C945D00BC
:100050000C945D000C945D000C945D000C945D00AC
:100060000C945D000C945D000C945D000C945D009C
:100070000C945D000C945D000C945D000C945D008C
:100080000C945D000C945D000C945D0011241FBE67
:10009000CFEFD0E4DEBFCDBF11E0A0E0B1E0E4E4FB
:1000A000F3E000E00BBF02C007900D92AE30B10745
:1000B000D9F70E9488000C94A0010C940000CF9303
:1000C000DF9300D01F92CDB7DEB789837B836A832D
:1000D00089818A3031F48A819B81BC018DE00E9444
:1000E0005F0080EC90E0FC018081882F90E08072BE
:1000F00099270097B1F386EC90E02981FC012083D9
:1001000080E090E00F900F900F90DF91CF910895D5
:10011000CF93DF9300D0CDB7DEB781E290E0FC0152
:10012000108282E290E02FEFFC01208387E290E0D2
:100130002FEFFC01208388E290E0FC0110821A82FC
:10014000198280E290E0FC0180818F708A8384E0D4
:1001500089838A81882F90E0817099270097C9F060
:100160008A81882F90E082709927009791F08A8188
:10017000882F90E084709927009759F08A81882F02
:1001800090E088709927009721F0898184508983B5
:10019000D1C08A81882F90E081709927009779F0EB
:1001A0008A81882F90E082709927009741F08A8198
:1001B000882F90E084709927009709F03FC08A81CA
:1001C000882F90E081709927009771F08A81882F9D
:1001D00090E082709927009739F08A81882F90E00B
:1001E00088709927009751F58A81882F90E0817057
:1001F0009927009771F08A81882F90E08470992761
:10020000009739F08A81882F90E0887099270097AD
:10021000A9F48A81882F90E082709927009791F045
:100220008A81882F90E084709927009759F08A81FD
:10023000882F90E088709927009721F0898183505A
:10024000898378C08A81882F90E0817099270097F0
:1002500041F08A81882F90E082709927009709F0F9
:1002600046C08A81882F90E081709927009739F0E5
:100270008A81882F90E0847099270097C1F58A8140
:10028000882F90E081709927009739F08A81882F14
:1002900090E088709927009751F58A81882F90E027
:1002A00082709927009739F08A81882F90E08470B6
:1002B00099270097E1F48A81882F90E0827099272E
:1002C000009739F08A81882F90E0887099270097ED
:1002D00071F48A81882F90E084709927009759F0F3
:1002E0008A81882F90E088709927009721F0898172
:1002F000825089831FC08A81882F90E0817099275E
:100300000097A9F48A81882F90E08270992700973E
:1003100071F48A81882F90E084709927009739F4CE
:100320008A81882F90E088709927009719F0898139
:100330008150898388E290E02981FC01208301CFEC
:04034000F894FFCF5F
:0E03440000000002000000005F00000000004A
:00000001FF
