:100000000C9446000C945D000C945D000C945D0013
:100010000C945D000C945D000C945D000C945D00EC
:100020000C945D000C945D000C945D000C945D00DC
:100030000C945D000C945D000C945D000C945D00CC
:100040000C945D000C945D000C945D000C945D00BC
:100050000C945D000C945D000C945D000C945D00AC
:100060000C945D000C945D000C945D000C945D009C
:100070000C945D000C945D000C945D000C945D008C
:100080000C945D000C945D000C945D0011241FBE67
:10009000CFEFD0E4DEBFCDBF11E0A0E0B1E0E6E2FB
:1000A000F2E000E00BBF02C007900D92AE30B10746
:1000B000D9F70E9488000C9411010C940000CF9392
:1000C000DF9300D01F92CDB7DEB789837B836A832D
:1000D00089818A3031F48A819B81BC018DE00E9444
:1000E0005F0080EC90E0FC018081882F90E08072BE
:1000F00099270097B1F386EC90E02981FC012083D9
:1001000080E090E00F900F900F90DF91CF910895D5
:10011000CF93DF9300D000D000D0CDB7DEB781E21F
:1001200090E0FC01108282E290E02FEFFC0120833E
:1001300084E290E0FC01108285E290E02FEFFC0168
:10014000208387E290E0FC01108288E290E02FEFAC
:10015000FC0120838AE290E02FEFFC0120838BE2F8
:1001600090E0FC0110821A821B821C82198280E2BC
:1001700090E0FC0180818A8383E290E0FC01808131
:100180008B8386E290E0FC0180818C831E821D823D
:100190008A81282F30E08B81882F90E0280F391F2B
:1001A0008C81882F90E0820F931F9E838D838D8199
:1001B0009E81969587959695879589838D819E8159
:1001C0008D38910520F089818160898303C0898100
:1001D0008E7F89838A81282F30E08C81882F90E060
:1001E000A901481B590BCA01813591056CF48C811A
:1001F000282F30E08A81882F90E0F901E81BF90B65
:10020000CF018135910524F089818260898303C003
:1002100089818D7F89838BE290E02981FC01208395
:06022000A6CFF894FFCF09
:0E02260000000002000000005F000000000069
:00000001FF
