:100000000C9458000C9477000C9477000C947700B3
:100010000C9477000C9477000C9477000C94770084
:100020000C9477000C9477000C9477000C94770074
:100030000C9477000C9477000C9477000C94770064
:100040000C9477000C9477000C9477000C94770054
:100050000C9477000C9477000C9477000C94770044
:100060000C9477000C9477000C9477000C94770034
:100070000C9477000C9477000C9477000C94770024
:100080000C9477000C9477000C947700C500CC009A
:10009000F1001F014D01A4017B018C019D01BE01F6
:1000A000C501C501C501C501C501C001C501C30127
:1000B00011241FBECFEFD0E4DEBFCDBF11E0A0E022
:1000C000B1E0EEE5F5E000E00BBF02C007900D9255
:1000D000AE30B107D9F711E0AEE0B1E001C01D923A
:1000E000A031B107E1F70E94D0010C94AD020C944D
:1000F0000000CF93DF9300D01F92CDB7DEB7898386
:100100007B836A8389818A3031F48A819B81BC0137
:100110008DE00E94790080EC90E0FC018081882FC6
:1001200090E0807299270097B1F386EC90E02981E6
:10013000FC01208380E090E00F900F900F90DF9102
:10014000CF9108950F93CF93DF9300D000D01F92EB
:10015000CDB7DEB789836A834B832C830D8380916F
:100160000E0190910F01CC01A0E0B0E040E050E022
:1001700028E030E0841B950B2817390708F4E4C009
:100180008A5B9F4FFC010C94A40281E090E0909365
:100190000F0180930E01DDC08981882381F48A815B
:1001A000882369F48B81882351F08C81882339F46A
:1001B00082E090E090930F0180930E0111C08C813A
:1001C000882339F088E090E090930F0180930E012E
:1001D00007C081E090E090930F0180930E01B9C0B9
:1001E000B8C08981882381F48A81882369F48B814E
:1001F000882351F08C81882339F482E090E0909339
:100200000F0180930E011AC08981882381F48A81AD
:10021000882369F48B81882351F48C81882339F4F5
:1002200083E090E090930F0180930E0107C088E077
:1002300090E090930F0180930E018BC08AC089815A
:10024000882381F48A81882369F08B81882351F483
:100250008C81882339F484E090E090930F0180939F
:100260000E011AC08981882381F48A81882369F468
:100270008B81882351F48C81882339F483E090E0CA
:1002800090930F0180930E0107C088E090E0909357
:100290000F0180930E015DC05CC08981882381F4C9
:1002A0008A81882369F08B81882351F48C8188238B
:1002B00039F484E090E090930F0180930E011AC00E
:1002C0008981882381F48A81882369F48B8188233A
:1002D00051F48C81882339F486E090E090930F01EB
:1002E00080930E0107C088E090E090930F01809307
:1002F0000E012FC02EC08C81882339F087E090E05A
:1003000090930F0180930E0124C086E090E09093BB
:100310000F0180930E011DC08C81882339F087E086
:1003200090E090930F0180930E0113C088E090E05D
:1003300090930F0180930E010CC081E090E09093A8
:100340000F0180930E0105C010920F0110920E0153
:10035000000080910E0190910F01CC01A0E0B0E06F
:1003600040E050E028E030E0841B950B2817390767
:1003700060F0815B9F4FFC010C94A4021D8206C0BB
:1003800081E08D8303C01D8201C000008D810F902C
:100390000F900F900F900F90DF91CF910F910895D4
:1003A0000F93CF93DF9300D000D000D0CDB7DEB74E
:1003B00081E290E0FC01108282E290E02FEFFC01EC
:1003C000208384E290E02FEFFC01208385E290E01F
:1003D000FC01108219821A821B821C821D821E82DD
:1003E00080E290E0FC018081882F90E099278130A5
:1003F000910521F580E290E0FC0180818170898384
:100400008E81282F30E08981882F90E0A901481B38
:10041000590BCA018230910509F41A828E81282F66
:1004200030E08A81882F90E0F901E81BF90BCF01B9
:100430008430910509F075C01B8273C080E290E0A2
:10044000FC018081882F90E099278230910521F569
:1004500080E290E0FC01808182708A838E81282F67
:1004600030E08A81882F90E0A901481B590BCA010E
:100470008130910509F419828E81282F30E08A811C
:10048000882F90E0F901E81BF90BCF01843091052A
:1004900009F047C01B8245C080E290E0FC018081EA
:1004A000882F90E099278430910519F580E290E03B
:1004B000FC01808184708B838E81282F30E08A81BB
:1004C000882F90E0A901481B590BCA018230910581
:1004D00009F41A828E81282F30E08981882F90E0DC
:1004E000F901E81BF90BCF0181309105D1F4198294
:1004F00018C080E290E0FC0180818170898380E2F5
:1005000090E0FC01808182708A8380E290E0FC01AF
:10051000808184708B8380E290E0FC018081807810
:100520008C830D812C814B816A8189810E94A2007C
:100530008D8380E290E0FC0180818E8385E290E0F3
:100540002D81FC0120834CCFEE0FFF1F0024001CE7
:0E0550000BBE0790F691E02D0994F894FFCFB2
:0E055E00000000020000000079000000000014
:00000001FF
