:100000000C945C000C947B000C947B000C947B00A3
:100010000C947B000C947B000C947B000C947B0074
:100020000C947B000C947B000C947B000C947B0064
:100030000C947B000C947B000C947B000C947B0054
:100040000C947B000C947B000C947B000C947B0044
:100050000C947B000C947B000C947B000C947B0034
:100060000C947B000C947B000C947B000C947B0024
:100070000C947B000C947B000C947B000C947B0014
:100080000C947B000C947B000C947B00C900D00086
:10009000F500230151017F019001B501ED01250219
:1000A0005D02880291029102910291028A029102FC
:1000B0009102910291028D0211241FBECFEFD0E474
:1000C000DEBFCDBF11E0A0E0B1E0E6EFF6E000E07A
:1000D0000BBF02C007900D92AE30B107D9F711E007
:1000E000AEE0B1E001C01D92A031B107E1F70E947E
:1000F0009C020C9479030C940000CF93DF9300D002
:100100001F92CDB7DEB789837B836A8389818A306A
:1001100031F48A819B81BC018DE00E947D0080ECDE
:1001200090E0FC018081882F90E0807299270097F1
:10013000B1F386EC90E02981FC01208380E090E01F
:100140000F900F900F90DF91CF9108950F93CF9361
:10015000DF9300D000D01F92CDB7DEB789836A83CA
:100160004B832C830D8380910E0190910F01CC0164
:10017000A0E0B0E040E050E02AE030E0841B950BC6
:100180002817390708F4AAC18A5B9F4FFC010C9419
:10019000700381E090E090930F0180930E01A3C162
:1001A0008981882381F48A81882369F48B8188235B
:1001B00051F08C81882339F482E090E090930F0114
:1001C00080930E0111C08C81882339F08AE090E081
:1001D00090930F0180930E0107C081E090E090930F
:1001E0000F0180930E017FC17EC18981882381F434
:1001F0008A81882369F48B81882351F08C8188233C
:1002000039F482E090E090930F0180930E011AC0C0
:100210008981882381F48A81882369F48B818823EA
:1002200051F48C81882339F483E090E090930F019E
:1002300080930E0107C08AE090E090930F018093B5
:100240000E0151C150C18981882381F48A8188239C
:1002500069F08B81882351F48C81882339F484E000
:1002600090E090930F0180930E011AC0898188233A
:1002700081F48A81882369F48B81882351F48C81ED
:10028000882339F483E090E090930F0180930E016E
:1002900007C08AE090E090930F0180930E0123C184
:1002A00022C18981882381F48A81882369F08B8126
:1002B000882351F48C81882339F484E090E0909372
:1002C0000F0180930E011AC08981882381F48A81ED
:1002D000882369F48B81882351F48C81882339F435
:1002E00085E090E090930F0180930E0107C08AE0B3
:1002F00090E090930F0180930E01F5C0F4C08C81C3
:10030000882339F08AE090E090930F0180930E01EA
:10031000EAC086E090E090930F0180930E01E3C065
:100320008981882381F48A81882369F48B818823D9
:1003300051F08C81882339F487E090E090930F018D
:1003400080930E0111C08C81882339F08AE090E0FF
:1003500090930F0180930E0107C086E090E0909388
:100360000F0180930E01BFC0BEC08981882381F434
:100370008A81882369F48B81882351F08C818823BA
:1003800039F487E090E090930F0180930E0124C030
:100390008981882381F48A81882369F48B81882369
:1003A00051F48C81882339F488E090E090930F0118
:1003B00080930E0111C08C81882339F08AE090E08F
:1003C00090930F0180930E0107C085E090E0909319
:1003D0000F0180930E0187C086C08981882381F434
:1003E0008A81882369F08B81882351F48C8188234A
:1003F00039F489E090E090930F0180930E0124C0BE
:100400008981882381F48A81882369F48B818823F8
:1004100051F48C81882339F488E090E090930F01A7
:1004200080930E0111C08C81882339F08AE090E01E
:1004300090930F0180930E0107C085E090E09093A8
:100440000F0180930E014FC04EC08981882381F433
:100450008A81882369F08B81882351F48C818823D9
:1004600039F489E090E090930F0180930E0124C04D
:100470008981882381F48A81882369F48B81882388
:1004800051F48C81882339F48AE090E090930F0135
:1004900080930E0111C08C81882339F08AE090E0AE
:1004A00090930F0180930E0107C085E090E0909338
:1004B0000F0180930E0117C016C08C81882339F07C
:1004C0008AE090E090930F0180930E010CC081E0D0
:1004D00090E090930F0180930E0105C010920F01E0
:1004E00010920E01000080910E0190910F01CC013D
:1004F000A0E0B0E040E050E02AE030E0841B950B43
:100500002817390760F08F5A9F4FFC010C94700335
:100510001D8208C081E08D8305C01D8203C00000DC
:1005200001C000008D810F900F900F900F900F90E1
:10053000DF91CF910F9108950F93CF93DF9300D068
:1005400000D000D0CDB7DEB781E290E0FC01108290
:1005500082E290E02FEFFC01208384E290E02FEF15
:10056000FC01208385E290E0FC01108219821A824E
:100570001B821C821D821E8280E290E0FC01808131
:10058000882F90E099278130910521F580E290E055
:10059000FC018081817089838E81282F30E08981E0
:1005A000882F90E0A901481B590BCA0182309105A0
:1005B00009F41A828E81282F30E08A81882F90E0FA
:1005C000F901E81BF90BCF018430910509F075C0E2
:1005D0001B8273C080E290E0FC018081882F90E054
:1005E00099278230910521F580E290E0FC0180811D
:1005F00082708A838E81282F30E08A81882F90E054
:10060000A901481B590BCA018130910509F41982CF
:100610008E81282F30E08A81882F90E0F901E81B35
:10062000F90BCF018430910509F047C01B8245C00A
:1006300080E290E0FC018081882F90E0992784304F
:10064000910519F580E290E0FC01808184708B8334
:100650008E81282F30E08A81882F90E0A901481BE5
:10066000590BCA018230910509F41A828E81282F14
:1006700030E08981882F90E0F901E81BF90BCF0168
:1006800081309105D1F4198218C080E290E0FC011C
:1006900080818170898380E290E0FC01808182709A
:1006A0008A8380E290E0FC01808184708B8380E209
:1006B00090E0FC01808180788C830D812C814B81BE
:1006C0006A8189810E94A6008D8380E290E0FC010E
:1006D00080818E8385E290E02D81FC0120834CCFC8
:1006E000EE0FFF1F0024001C0BBE0790F691E02DBB
:0606F0000994F894FFCF0D
:0E06F60000000002000000007D000000000077
:00000001FF
