:100000000C9446000C9465000C9465000C946500FB
:100010000C9465000C9465000C9465000C946500CC
:100020000C9465000C9465000C9465000C946500BC
:100030000C9465000C9465000C9465000C946500AC
:100040000C9465000C9465000C9465000C9465009C
:100050000C9465000C9465000C9465000C9465008C
:100060000C9465000C9465000C9465000C9465007C
:100070000C9465000C9465000C9465000C9465006C
:100080000C9465000C9465000C94650011241FBE4F
:10009000CFEFD0E4DEBFCDBF11E0A0E0B1E0E6E8F5
:1000A000F2E000E00BBF02C007900D92AE30B10746
:1000B000D9F711E0AEE0B1E001C01D92A031B10767
:1000C000E1F70E9411010C9441010C940000CF93C0
:1000D000DF9300D01F92CDB7DEB789837B836A831D
:1000E00089818A3031F48A819B81BC018DE00E9434
:1000F000670080EC90E0FC018081882F90E08072A6
:1001000099270097B1F386EC90E02981FC012083C8
:1001100080E090E00F900F900F90DF91CF910895C5
:10012000CF93DF9300D0CDB7DEB789836A83809108
:100130000E0190910F0182309105E9F08330910515
:1001400030F4009759F08130910571F03DC0833053
:10015000910511F18430910531F136C081E090E0D4
:1001600090930F0180930E0182E090E090930F0135
:1001700080930E012EC08981882339F482E090E0BB
:1001800090930F0180930E0124C083E090E0909340
:100190000F0180930E011DC084E090E090930F0149
:1001A00080930E0116C08981882339F484E090E0A1
:1001B00090930F0180930E010CC081E090E090932A
:1001C0000F0180930E0105C010920F0110920E01D5
:1001D000000080910E0190910F0182309105B1F0E5
:1001E0008330910530F4009799F08130910541F00A
:1001F00012C08330910539F08430910559F00BC05D
:1002000081E08A8308C082E08A8305C0000003C0C1
:10021000000001C000008A810F900F90DF91CF9104
:100220000895CF93DF9300D0CDB7DEB781E290E0A1
:10023000FC01108282E290E02FEFFC01208384E237
:1002400090E02FEFFC01208385E290E0FC0110821A
:100250001A82198281E090E090930F0180930E0141
:1002600080E290E0FC01808181708A8369818A81CB
:100270000E949000898385E290E02981FC0120831F
:06028000EFCFF894FFCF60
:0E028600000000020000000067000000000001
:00000001FF
