:100000000C9454000C9473000C9473000C947300C3
:100010000C9473000C9473000C9473000C94730094
:100020000C9473000C9473000C9473000C94730084
:100030000C9473000C9473000C9473000C94730074
:100040000C9473000C9473000C9473000C94730064
:100050000C9473000C9473000C9473000C94730054
:100060000C9473000C9473000C9473000C94730044
:100070000C9473000C9473000C9473000C94730034
:100080000C9473000C9473000C947300BD00F30087
:100090001901C400FA0020013F0180016C017401C4
:1000A0008001800180017C0111241FBECFEFD0E4CC
:1000B000DEBFCDBF11E0A0E0B1E0EAE9F3E000E08F
:1000C0000BBF02C007900D92AE30B107D9F711E017
:1000D000AEE0B1E001C01D92A031B107E1F70E948E
:1000E00088010C94CB010C940000CF93DF9300D0D7
:1000F0001F92CDB7DEB789837B836A8389818A307B
:1001000031F48A819B81BC018DE00E94750080ECF6
:1001100090E0FC018081882F90E080729927009701
:10012000B1F386EC90E02981FC01208380E090E02F
:100130000F900F900F90DF91CF910895CF93DF93A1
:1001400000D01F92CDB7DEB789836A834B8380913D
:100150000E0190910F01CC01A0E0B0E040E050E032
:1001600026E030E0841B950B2817390708F49AC065
:100170008A5B9F4FFC010C94C20183E090E0909356
:100180000F0180930E0193C08981882351F08A81E9
:10019000882339F083E090E090930F0180930E0163
:1001A00021C08981882351F08A81882339F481E034
:1001B00090E090930F0180930E0114C089818823F1
:1001C00051F48A81882339F082E090E090930F0106
:1001D00080930E0107C086E090E090930F0180931A
:1001E0000E0165C064C084E090E090930F0180939D
:1001F0000E015DC08981882351F08A81882339F4FA
:1002000084E090E090930F0180930E0111C08A81E9
:10021000882339F082E090E090930F0180930E01E3
:1002200007C086E090E090930F0180930E013FC0DD
:100230003EC085E090E090930F0180930E0137C09F
:100240008A81882351F08981882339F485E090E000
:1002500090930F0180930E0111C08981882339F09A
:1002600081E090E090930F0180930E0107C086E03B
:1002700090E090930F0180930E0119C018C08981FE
:10028000882319F48A81882339F083E090E09093E1
:100290000F0180930E0106C086E090E090930F015D
:1002A00080930E0110920F0110920E0100008091B8
:1002B0000E0190910F01CC01A0E0B0E040E050E0D1
:1002C00026E030E0841B950B28173907B8F0835BD4
:1002D0009F4FFC010C94C2018B818A3020F48B81EA
:1002E0008F5F8B830EC00DC08B81882321F08B81A3
:1002F00081508B8306C005C01B8203C0000001C073
:1003000000008B810F900F900F90DF91CF91089597
:10031000CF93DF9300D01F92CDB7DEB781E290E09C
:10032000FC01108282E290E02FEFFC01208384E246
:1003300090E02FEFFC01208385E290E0FC01108229
:100340001A821B82198210920F0110920E0187E00F
:10035000898380E290E0FC01808181708A8380E261
:1003600090E0FC01808182708B8349816B818A815E
:100370000E949E008F70898385E290E02981FC01B4
:100380002083E7CFEE0FFF1F0024001C0BBE079059
:0A039000F691E02D0994F894FFCFD8
:0E039A000000000200000000750000000000DE
:00000001FF
